:020000040000FA
:0400000000EF12F00B
:100600000048483A4D4D3A535320202020202020C6
:1006100020202020200020202020202020202020FA
:100620002020202020202020002020544F20444F34
:10063000574E4C4F4144203A2820002020544F2050
:10064000444953504C4159203A282000436C65617D
:1006500072696E67206C6F67732E2E2E00202054F7
:10066000494D4520202020455620205350005468F5
:10067000726F75676820554152542E2E0023205604
:10068000494557204C4F47203A2000446F776E6C05
:100690006F6164696E672E2E004A75737420612045
:1006A0006D696E75746500446F776E6C6F61642060
:1006B0004C6F67004E4F204C4F4753202020004383
:1006C0006C656172204C6F67005365742054696DCE
:1006D000650056696577204C6F67000A0D0043205E
:1006E00000473100473200473300473400473500A8
:1006F000474E004F4E00475200007DEC13F089EC4E
:1007000008F0040E83EC12F001C01BF002C01CF0D4
:100710001BC008F01CC009F0A6EC12F0CFEC11F0E1
:1007200041504210D8A497EF03F099EF03F0E1EFA6
:1007300003F0000E016E010EE7EC12F05D0E076E85
:10074000060E086E800E096E99EC11F0890E076E88
:10075000000E086EC00E096E99EC11F0D8905B3453
:10076000D96E5C34DA6E600ED926000EDA22DECF46
:1007700007F0DDCF08F0CA0E096E99EC11F0CF0E2C
:10078000096E49C001F04AC002F0000E046E0A0E64
:10079000036E78EC10F00150300F96EC13F0CE0E93
:1007A000096E49C001F04AC002F0000E046E0A0E44
:1007B000036E16EC10F00150300F96EC13F07FEF43
:1007C00003F041044210D8A4E8EF03F0EAEF03F08D
:1007D00033EF04F0160E076E060E086E800E096EDB
:1007E00099EC11F0160E076E060E086EC00E096E1B
:1007F00099EC11F055505610D8A401EF04F003EF16
:1008000004F00AEF04F0800E096E2A0E96EC13F045
:100810000FEF04F0C00E096E2A0E96EC13F0D8907C
:100820005734D96E5834DA6E720ED926000EDA2299
:10083000DECF07F0DDCF08F0820E096E99EC11F0E3
:10084000D8905734D96E5834DA6E740ED926000E0B
:10085000DA22DECF07F0DDCF08F0C20E096E99EC88
:1008600011F07FEF03F045044610D8A43AEF04F0EE
:100870003CEF04F0D4EF04F047504810D8A443EF05
:1008800004F045EF04F0A2EF04F03F504010D8A46C
:100890004CEF04F04EEF04F0A2EF04F020EE1DF058
:1008A000070EDE6AE806FDE2B40E076E060E086E5D
:1008B000800E096E99EC11F03B0E076E060E086E65
:1008C000C00E096E99EC11F01DC013F01EC014F09B
:1008D0001FC015F020C016F021C017F022C018F07C
:1008E00023C019F024C01AF01D2A000E1E221F2258
:1008F000202221222222232224221A5019101810E9
:10090000171016100DE1E00E135C930E1458040E30
:100910001558D8A08EEF04F090EF04F064EF04F0C7
:10092000000E426E010E416E000E586E000E576EA4
:10093000000E566E000E556E000E466E000E456E91
:100940007FEF03F0E2EC0CF0160E076E060E086E59
:10095000800E096E99EC11F0160E076E060E086EE9
:10096000C00E096E99EC11F07D0E076E060E086E32
:10097000800E096E99EC11F059C001F05AC002F0D6
:10098000000E046E120E036E2EEC13F0000E012406
:10099000076E010E0220086EC00E096E99EC11F070
:1009A0007FEF03F07FEF03F0000181058211D8A4EF
:1009B000DCEF04F0DEEF04F046EF05F0000E486EC9
:1009C000000E476E000E406E000E3F6E20EE25F0CA
:1009D000070EDE6AE806FDE2000E016E010EE7EC8E
:1009E00012F04C0E076E060E086E800E096E99EC22
:1009F00011F0990E076E060E086EC00E096E99EC86
:100A000011F025C013F026C014F027C015F028C03F
:100A100016F029C017F02AC018F02BC019F02CC00E
:100A20001AF0252A000E26222722282229222A22ED
:100A30002B222C221A5019101810171016100DE125
:100A4000E00E135C930E1458040E1558D8A02BEF2B
:100A500005F02DEF05F001EF05F020EE25F0070E73
:100A6000DE6AE806FDE2000E426E010E416E000EE7
:100A7000586E000E576E000E566E000E556E000E2C
:100A80000001826F000E816F7FEF03F083058411F8
:100A9000D8A44DEF05F04FEF05F030EF06F020EE53
:100AA0002FF0070EDE6AE806FDE2000E016E010E71
:100AB000E7EC12F047504810D8A461EF05F063EF5F
:100AC00005F0C1EF05F03F504010D8A46AEF05F0E3
:100AD0006CEF05F0C1EF05F0B40E076E060E086E60
:100AE000800E096E99EC11F0290E076E060E086E45
:100AF000C00E096E99EC11F02FC013F030C014F045
:100B000031C015F032C016F033C017F034C018F001
:100B100035C019F036C01AF02F2A000E30223122CB
:100B2000322233223422352236221A50191018105C
:100B3000171016100DE1E00E135C930E1458040EFE
:100B40001558D8A0A6EF05F0A8EF05F07CEF05F04A
:100B500020EE2FF0070EDE6AE806FDE2000E426E80
:100B6000010E416E000E586E000E576E000E566E4E
:100B7000000E556E000E0001846F000E836F7FEF34
:100B800003F0E2EC0CF08B0E076E060E086E800E82
:100B9000096E99EC11F06E0E076E060E086EC00E0F
:100BA000096E99EC11F0000E2E6E000E2D6EF3EF13
:100BB00005F02DC001F02EC002F0000E046E120EE2
:100BC000036E2EEC13F0000E0124076E010E0220BE
:100BD000086E30EC12F0DB0E076E060E086E30EC7D
:100BE00012F02D4A2E2A53502D5C2E50800A136E7F
:100BF0005450800A1358D8A000EF06F002EF06F018
:100C0000D9EF05F02FC013F030C014F031C015F04B
:100C100032C016F033C017F034C018F035C019F0E8
:100C200036C01AF02F2A000E30223122322233220F
:100C30003422352236221A501910181017101610A7
:100C40000DE1E00E135C930E1458040E1558D8A055
:100C50002CEF06F02EEF06F002EF06F0A8EF05F0FD
:100C600043044410D8A437EF06F039EF06F0D2EF72
:100C700004F087518811D8A440EF06F042EF06F047
:100C800097EF06F0D00E8925016E026AFF0E022250
:100C9000000E046E0A0E036E2EEC13F001C051F02C
:100CA00002C052F0D00E00018A25136E146AFF0EA6
:100CB00014221350512614505222D00E8C25016E4E
:100CC000026AFF0E0222000E046E0A0E036E2EEC64
:100CD00013F001C04FF002C050F0D00E00018D257E
:100CE000136E146AFF0E142213504F261450502214
:100CF000D00E8F25016E026AFF0E0222000E046ED6
:100D00000A0E036E2EEC13F001C04DF002C04EF03F
:100D1000D00E00019025136E146AFF0E142213509A
:100D20004D2614504E22000E886F010E876F20EE64
:100D300037F0070EDE6AE806FDE2010E076E060ECA
:100D4000086E800E096E99EC11F0C00E096E51C04C
:100D500001F052C002F0000E046E0A0E036E16EC93
:100D600010F00150300F96EC13F0C10E096E51C017
:100D700001F052C002F0000E046E0A0E036E78EC11
:100D800010F00150300F96EC13F04B504C10D8A4DB
:100D9000CCEF06F0CEEF06F0FFEF06F037C013F011
:100DA00038C014F039C015F03AC016F03BC017F047
:100DB0003CC018F03DC019F03EC01AF0372A000EB2
:100DC000382239223A223B223C223D223E221A502E
:100DD000191018101710161015100BE1500E135C97
:100DE000C30E1458D8A0F7EF06F0F9EF06F0CEEFD7
:100DF00006F020EE37F0070EDE6AE806FDE2C20ECE
:100E0000096E3A0E96EC13F0C30E096E4FC001F056
:100E100050C002F0000E046E0A0E036E16EC10F0C5
:100E20000150300F96EC13F0C40E096E4FC001F064
:100E300050C002F0000E046E0A0E036E78EC10F043
:100E40000150300F96EC13F04B044C10D8A42BEF4C
:100E500007F02DEF07F05EEF07F037C013F038C052
:100E600014F039C015F03AC016F03BC017F03CC082
:100E700018F03DC019F03EC01AF0372A000E382293
:100E800039223A223B223C223D223E221A5019109E
:100E900018101710161015100BE1500E135CC30E2E
:100EA0001458D8A056EF07F058EF07F02DEF07F0D1
:100EB00020EE37F0070EDE6AE806FDE2C50E096E89
:100EC0003A0E96EC13F0C60E096E4DC001F04EC0FE
:100ED00002F0000E046E0A0E036E16EC10F00150C4
:100EE000300F96EC13F0C70E096E4DC001F04EC0E6
:100EF00002F0000E046E0A0E036E78EC10F0015042
:100F0000300F96EC13F0020E4B184C10D8A48BEF58
:100F100007F08DEF07F0BEEF07F037C013F038C0D1
:100F200014F039C015F03AC016F03BC017F03CC0C1
:100F300018F03DC019F03EC01AF0372A000E3822D2
:100F400039223A223B223C223D223E221A501910DD
:100F500018101710161015100BE1500E135CC30E6D
:100F60001458D8A0B6EF07F0B8EF07F08DEF07F0F0
:100F700020EE37F0070EDE6AE806FDE2220E076E6D
:100F8000060E086EC80E096E99EC11F04B504C100D
:100F9000D8A4CDEF07F0CFEF07F00AEF08F0260E48
:100FA000076E060E086EC00E096E99EC11F037C080
:100FB00013F038C014F039C015F03AC016F03BC039
:100FC00017F03CC018F03DC019F03EC01AF0372AA7
:100FD000000E382239223A223B223C223D223E2278
:100FE0001A50191018101710161015100BE1500E8A
:100FF000135CC30E1458D8A000EF08F002EF08F0FD
:10100000D7EF07F020EE37F0070EDE6AE806FDE2C4
:101010007FEF03F04B044C10D8A411EF08F013EF4E
:1010200008F048EF08F0260E076E060E086EC30E95
:10103000096E99EC11F037C013F038C014F039C0C4
:1010400015F03AC016F03BC017F03CC018F03DC098
:1010500019F03EC01AF0372A000E382239223A22FF
:101060003B223C223D223E221A5019101810171024
:10107000161015100BE1500E135CC30E1458D8A0B7
:1010800044EF08F046EF08F01BEF08F002EF08F01D
:10109000020E4B184C10D8A450EF08F052EF08F095
:1010A000D2EF04F0260E076E060E086EC60E096E0D
:1010B00099EC11F037C013F038C014F039C015F0B6
:1010C0003AC016F03BC017F03CC018F03DC019F014
:1010D0003EC01AF0372A000E382239223A223B222B
:1010E0003C223D223E221A501910181017101610DB
:1010F00015100BE1500E135CC30E1458D8A083EFEB
:1011000008F085EF08F05AEF08F002EF08F000EF62
:1011100000F0010E24EC11F0126E1204D8A493EF2B
:1011200008F095EF08F0F2EF08F043044410D8A45B
:101130009CEF08F09EEF08F0F2EF08F04B504C10D7
:10114000D8A4A5EF08F0A7EF08F0BBEF08F0514ACC
:10115000522A180E51185210D8A4B1EF08F0B3EF6C
:1011600008F0E1EF0CF0000E526E000E516EE1EF50
:101170000CF0E1EF0CF04B044C10D8A4C2EF08F0D7
:10118000C4EF08F0D6EF08F04F4A502A3C0E4F1833
:101190005010D8A4CEEF08F0D0EF08F0E1EF0CF03B
:1011A000000E506E000E4F6EE1EF0CF0020E4B1869
:1011B0004C10D8A4DEEF08F0E0EF08F0B9EF08F02B
:1011C0004D4A4E2A3C0E4D184E10D8A4EAEF08F0B6
:1011D000ECEF08F0E1EF0CF0000E4E6E000E4D6EDD
:1011E000E1EF0CF0020E1218D8A4F9EF08F0FBEFB3
:1011F00008F016EF09F043044410D8A402EF09F0F8
:1012000004EF09F016EF09F04B4A4C2A030E4B1875
:101210004C10D8A40EEF09F010EF09F0E1EF0CF03C
:10122000000E4C6E000E4B6EE1EF0CF00B0E121820
:10123000D8A41DEF09F01FEF09F0A4EF09F0430453
:101240004410D8A426EF09F028EF09F0A4EF09F024
:1012500051C001F052C002F0000E046E0A0E036E7F
:1012600078EC10F001C00FF002C010F051C001F096
:1012700052C002F0000E046E0A0E036E16EC10F05F
:101280000138F00B0F10096E020E61EC13F04FC025
:1012900001F050C002F0000E046E0A0E036E78ECEE
:1012A00010F001C00FF002C010F04FC001F050C0AC
:1012B00002F0000E046E0A0E036E16EC10F00138F8
:1012C000F00B0F10096E010E61EC13F04DC001F030
:1012D0004EC002F0000E046E0A0E036E78EC10F0A1
:1012E00001C00FF002C010F04DC001F04EC002F07E
:1012F000000E046E0A0E036E16EC10F00138F00BAF
:101300000F10096E000E61EC13F0000E426E000E1D
:10131000416E000E446E000E436E000E5A6E000EBB
:10132000596E000E566E000E556E000E586E000E71
:10133000576E000E0001806F000E7F6F000E886FE9
:10134000000E876F10EF09F00C0E1218D8A4ABEF47
:1013500009F0ADEF09F0D9EF09F043044410D8A427
:10136000B4EF09F0B6EF09F0D9EF09F0000E426EC4
:10137000010E416E000E446E000E436E000E5A6E5A
:10138000000E596E000E566E000E556E000E586E11
:10139000000E576E000E0001806F000E7F6F000E72
:1013A000886F000E876F000E4C6E000E4B6EE1EFE3
:1013B0000CF00C0E1218D8A4E0EF09F0E2EF09F0DF
:1013C00016EF0AF041504210D8B4E9EF09F0EBEF04
:1013D00009F016EF0AF0000E016E010EE7EC12F0B4
:1013E0004106D8A04206000E466E000E456E000E65
:1013F000446E000E436E000E0001846F000E836F7A
:10140000000E446E000E436E000E5A6E000E596EB2
:10141000000E566E000E556E000E586E000E576E82
:10142000000E806F000E7F6FE1EF0CF04504461058
:10143000D8A41DEF0AF01FEF0AF06DEF0AF0020EBC
:101440001218D8A426EF0AF028EF0AF06DEF0AF080
:101450005ABE36EF0AF05A5007E1090E595CD8B06F
:1014600034EF0AF036EF0AF06DEF0AF03F04401057
:10147000D8A43DEF0AF03FEF0AF043EF0AF0594AD3
:101480005A2AE1EF0CF03F504010D8A44AEF0AF07E
:101490004CEF0AF0E1EF0CF047C001F048C002F059
:1014A000000E046E0A0E036E16EC10F0FF0E0124FF
:1014B0000F6EFF0E0220106E0F50595C5A50800ABA
:1014C000116E1050800A1158D8B069EF0AF06BEF16
:1014D0000AF0E1EF0CF03FEF0AF045044610D8A403
:1014E00074EF0AF076EF0AF090EF0AF01204D8A435
:1014F0007CEF0AF07EEF0AF090EF0AF05ABE89EF17
:101500000AF05A5008E15904D8A089EF0AF08BEF8D
:101510000AF090EF0AF05906D8A05A06E1EF0CF055
:101520001204D8A496EF0AF098EF0AF0E8EF0AF058
:101530005CBEA6EF0AF05C5007E1090E5B5CD8B018
:10154000A4EF0AF0A6EF0AF0E8EF0AF041504210CB
:10155000D8A4ADEF0AF0AFEF0AF0E8EF0AF0640E9E
:1015600047184810D8A4B7EF0AF0B9EF0AF0C1EF56
:101570000AF0000E406E010E3F6E000E486E000E27
:10158000476E000E0001866F000E856F070E5B1818
:101590005C10D8A4CEEF0AF0D0EF0AF0D2EF0AF038
:1015A000E1EF0CF0080E5B185C10D8A4DAEF0AF03B
:1015B000DCEF0AF0E2EF0AF0000E5C6E010E5B6EEB
:1015C000E4EF0AF05B4A5C2A95EC0FF067EF0BF052
:1015D000020E1218D8A4EFEF0AF0F1EF0AF030EF84
:1015E0000BF05CBEFDEF0AF05C5009E1020E5B5CA3
:1015F000D8A0FDEF0AF0FFEF0AF030EF0BF04150FA
:101600004210D8A406EF0BF008EF0BF030EF0BF010
:10161000640E47184810D8A410EF0BF012EF0BF02F
:101620001AEF0BF0000E406E010E3F6E000E486E7A
:10163000000E476E000E0001866F000E856F080ECB
:101640005B185C10D8A427EF0BF029EF0BF02BEF01
:101650000BF0DCEF0AF05B06D8A05C06E4EF0AF0C2
:10166000030E1218D8A437EF0BF039EF0BF067EF29
:101670000BF041504210D8A440EF0BF042EF0BF0BA
:1016800067EF0BF0640E47184810D8A44AEF0BF030
:101690004CEF0BF054EF0BF0000E406E010E3F6E5E
:1016A000000E486E000E476E000E5C6E080E5B6EFC
:1016B000000185518611D8A460EF0BF062EF0BF0AA
:1016C00064EF0BF095EC0FF00001854B862B0B0EB1
:1016D0001218D8A46EEF0BF070EF0BF080EF0BF048
:1016E00042BE7EEF0BF0425007E1020E415CD8B0E3
:1016F0007CEF0BF07EEF0BF080EF0BF0414A422ABB
:10170000020E1218D8A487EF0BF089EF0BF0E6EF6A
:101710000BF058BE97EF0BF0585007E1030E575CE3
:10172000D8B095EF0BF097EF0BF0E6EF0BF041041C
:101730004210D8A49EEF0BF0A0EF0BF0E6EF0BF0F9
:10174000640E47184810D8A4A8EF0BF0AAEF0BF0CE
:10175000B2EF0BF0000E406E010E3F6E000E486EB1
:10176000000E476E55505610D8A4B9EF0BF0BBEFE2
:101770000BF0C4EF0BF0000E566E010E556E00011B
:101780007F4B802BE1EF0CF000017F518011D8B42A
:10179000CCEF0BF0CEEF0BF0D0EF0BF0574A582AFE
:1017A0007F4B802B030E57185810D8A4DAEF0BF09C
:1017B000DCEF0BF04DEF0CF0000E586E020E576E82
:1017C000000E806F030E7F6F4DEF0CF01204D8A453
:1017D000ECEF0BF0EEEF0BF04DEF0CF058BEFCEF22
:1017E0000BF0585007E1030E575CD8B0FAEF0BF03E
:1017F000FCEF0BF04DEF0CF041044210D8A403EFC6
:101800000CF005EF0CF04DEF0CF0640E471848108B
:10181000D8A40DEF0CF00FEF0CF017EF0CF0000E4A
:10182000406E010E3F6E000E486E000E476E55046E
:101830005610D8A41EEF0CF020EF0CF02AEF0CF09D
:10184000000E566E000E556E00017F07D8A080076F
:10185000E1EF0CF0030E00017F198011D8B433EFD3
:101860000CF035EF0CF038EF0CF05706D8A0580606
:101870007F07D8A08007572806E15828D8A443EF4F
:101880000CF045EF0CF04DEF0CF0000E586E000E12
:10189000576E000E806F000E7F6F020E41184210CF
:1018A000D8A455EF0CF057EF0CF0E1EF0CF05550C9
:1018B0005610D8A45EEF0CF060EF0CF06FEF0CF058
:1018C00057505810D8A467EF0CF069EF0CF06FEF89
:1018D0000CF0000E466E010E456EE1EF0CF0550463
:1018E0005610D8A476EF0CF078EF0CF087EF0CF0E0
:1018F00057505810D8A47FEF0CF081EF0CF087EF11
:101900000CF0000E446E010E436EE1EF0CF05550EA
:101910005610D8A48EEF0CF090EF0CF09BEF0CF06B
:1019200057045810D8A497EF0CF099EF0CF09BEFE8
:101930000CF081EF0CF055045610D8A4A2EF0CF077
:10194000A4EF0CF0B4EF0CF057045810D8A4ABEF90
:101950000CF0ADEF0CF0B4EF0CF0000E0001846F52
:10196000010E836FE1EF0CF055505610D8A4BBEF79
:101970000CF0BDEF0CF0C9EF0CF0020E5718581028
:10198000D8A4C5EF0CF0C7EF0CF0C9EF0CF0ADEF29
:101990000CF055045610D8A4D0EF0CF0D2EF0CF098
:1019A000B9EF08F0020E57185810D8A4DAEF0CF06F
:1019B000DCEF0CF0B9EF08F0000E0001826F010EB1
:1019C000816F1200000E106E000E0F6E3F0440106B
:1019D000D8A4EDEF0CF0EFEF0CF0F9EF0CF047C0EE
:1019E0000BF048C00CF0000E546E0A0E536E0BEF55
:1019F0000DF0000E0C6E000E0B6E47C001F048C0DB
:101A000002F0000E046E0A0E036E16EC10F001C018
:101A100053F002C054F0000E0E6E000E0D6E01EF7A
:101A20000FF00DC001F00EC002F0000E046E120E99
:101A3000036E2EEC13F0000E0124D96E010E02206D
:101A4000DA6E0D50300FDF6E0F4A102A0DC001F014
:101A50000EC002F0000E046E120E036E2EEC13F098
:101A6000000E0124096E010E02200A6E0F50092497
:101A7000D96E10500A20DA6E200EDF6E0F4A102A3F
:101A80000DC001F00EC002F0000E046E120E036EC7
:101A90002EEC13F0000E0124096E010E02200A6ED6
:101AA0000F500924D96E10500A20DA6E0B5004EC46
:101AB00013F0DF6E0B4A0C2A0F4A102A0DC001F0FA
:101AC0000EC002F0000E046E120E036E2EEC13F028
:101AD000000E0124096E010E02200A6E0F50092427
:101AE000D96E10500A20DA6E0B5004EC13F0DF6E42
:101AF0000B4A0C2A0F4A102A0DC001F00EC002F04A
:101B0000000E046E120E036E2EEC13F0000E012474
:101B1000096E010E02200A6E0F500924D96E105072
:101B20000A20DA6E3A0EDF6E0F4A102A0DC001F05D
:101B30000EC002F0000E046E120E036E2EEC13F0B7
:101B4000000E0124096E010E02200A6E0F500924B6
:101B5000D96E10500A20DA6E0B5004EC13F0DF6ED1
:101B60000B4A0C2A0F4A102A0DC001F00EC002F0D9
:101B7000000E046E120E036E2EEC13F0000E012404
:101B8000096E010E02200A6E0F500924D96E105002
:101B90000A20DA6E0B5004EC13F0DF6E0B4A0C2AAD
:101BA0000F4A102A0DC001F00EC002F0000E046EA4
:101BB000120E036E2EEC13F0000E0124096E010EBE
:101BC00002200A6E0F500924D96E10500A20DA6ED6
:101BD0003A0EDF6E0F4A102A0DC001F00EC002F05F
:101BE000000E046E120E036E2EEC13F0000E012494
:101BF000096E010E02200A6E0F500924D96E105092
:101C00000A20DA6E0B5004EC13F0DF6E0B4A0C2A3C
:101C10000F4A102A0DC001F00EC002F0000E046E33
:101C2000120E036E2EEC13F0000E0124096E010E4D
:101C300002200A6E0F500924D96E10500A20DA6E65
:101C40000B5004EC13F0DF6E0B4A0C2A0F4A102ADB
:101C50000DC001F00EC002F0000E046E120E036EF5
:101C60002EEC13F0000E0124096E010E02200A6E04
:101C70000F500924D96E10500A20DA6E200EDF6E44
:101C80000F4A102A0DC001F00EC002F0000E046EC3
:101C9000120E036E2EEC13F0000E0124096E010EDD
:101CA00002200A6E0F500924D96E10500A20DA6EF5
:101CB0000B5004EC13F0DF6E0B4A0C2A0F4A102A6B
:101CC0000DC001F00EC002F0000E046E120E036E85
:101CD0002EEC13F0000E0124096E010E02200A6E94
:101CE0000F500924D96E10500A20DA6E0B5004EC04
:101CF00013F0DF6E0B4A0C2A0F4A102A0DC001F0B8
:101D00000EC002F0000E046E120E036E2EEC13F0E5
:101D1000000E0124096E010E02200A6E0F500924E4
:101D2000D96E10500A20DA6E200EDF6E0F4A102A8C
:101D30000DC001F00EC002F0000E046E120E036E14
:101D40002EEC13F0000E0124096E010E02200A6E23
:101D50000F500924D96E10500A20DA6E0B5004EC93
:101D600013F0DF6E0B4A0C2A0F4A102A0DC001F047
:101D70000EC002F0000E046E120E036E2EEC13F075
:101D8000000E0124096E010E02200A6E0F50092474
:101D9000D96E10500A20DA6E0B5004EC13F0DF6E8F
:101DA0000B4A0C2A0F4A102A0DC001F00EC002F097
:101DB000000E046E120E036E2EEC13F0000E0124C2
:101DC000096E010E02200A6E0F500924D96E1050C0
:101DD0000A20DA6EDF6A0F4A102A000E106E000E1B
:101DE0000F6E640E0B180C10D8A4F9EF0EF0FBEF79
:101DF0000EF0FFEF0EF0000E0C6E000E0B6E0D4A93
:101E00000E2A53500D5C0E50800A096E5450800A01
:101E10000958D8A00EEF0FF010EF0FF011EF0DF0F2
:101E20001200819A818C818E81B219EF0FF01BEF25
:101E30000FF01EEF0FF0010E94EF0FF081B423EFBF
:101E40000FF025EF0FF028EF0FF0040E94EF0FF0D6
:101E500081B62DEF0FF02FEF0FF032EF0FF0070EDE
:101E600094EF0FF081B837EF0FF039EF0FF03CEF40
:101E70000FF00A0E94EF0FF0818A819C818E81B25F
:101E800044EF0FF046EF0FF049EF0FF0020E94EF22
:101E90000FF081B44EEF0FF050EF0FF053EF0FF053
:101EA000050E94EF0FF081B658EF0FF05AEF0FF0D8
:101EB0005DEF0FF0080E94EF0FF081B862EF0FF0B6
:101EC00064EF0FF067EF0FF00B0E94EF0FF0818AC5
:101ED000818C819E819E81B270EF0FF072EF0FF0C6
:101EE00075EF0FF0030E94EF0FF081B47AEF0FF05F
:101EF0007CEF0FF07FEF0FF0060E94EF0FF081B63E
:101F000084EF0FF086EF0FF089EF0FF0090E94EFDA
:101F10000FF081B88EEF0FF090EF0FF093EF0FF00E
:101F20000C0E94EF0FF0FF0E120089C009F047501D
:101F3000C7EC12F0474A482A8AC009F04750C7EC5C
:101F400012F0474A482A8CC009F04750C7EC12F0FB
:101F5000474A482A8DC009F04750C7EC12F0474A5B
:101F6000482A8FC009F04750C7EC12F0474A482A68
:101F700090C009F04750C7EC12F0474A482AD89061
:101F80005B34D96E5C34DA6E600ED926000EDA222C
:101F9000DECFF6FFDDCFF7FF0800F5CF09F04750A1
:101FA000C7EC12F0474A482AD8905B34D96E5C34AB
:101FB000DA6E600ED926000EDA22DECF0DF0DDCF0C
:101FC0000EF0010E0D26000E0E220DC0F6FF0EC003
:101FD000F7FF0800F5CF09F04750C7EC12F0474A69
:101FE000482A49C001F04AC002F0000E046E0A0EF1
:101FF000036E16EC10F00150300F096E4750C7EC1D
:1020000012F0474A482A49C001F04AC002F0000EC7
:10201000046E0A0E036E78EC10F00150300F096E5A
:102020004750C7EC12F0474A482A1200000E066ECD
:1020300004BE1FEF10F01DEF10F025EF10F0036C41
:10204000041ED8B0042A010E066E02BE2CEF10F05A
:102050002AEF10F032EF10F0016C021ED8B0022A05
:10206000010E061A000E086E000E076E03500410D3
:10207000D8B43DEF10F03FEF10F067EF10F0010E15
:10208000056E47EF10F0D89003360436052A04AEEB
:102090004CEF10F04EEF10F043EF10F0D8900736F1
:1020A00008360350015C04500258D8A05AEF10F0D3
:1020B0005CEF10F061EF10F00350015E0450025A23
:1020C0000780D89004320332052E4EEF10F00650F0
:1020D000D8B46DEF10F06FEF10F073EF10F0076CE5
:1020E000081ED8B0082A07C001F008C002F012008C
:1020F000000E066E02BE81EF10F07FEF10F087EF4A
:1021000010F0016C021ED8B0022A010E066E04BE49
:102110008EEF10F08CEF10F092EF10F0036C041EB5
:10212000D8B0042A03500410D8B499EF10F09BEFF4
:1021300010F0BFEF10F0010E056EA3EF10F0D89075
:1021400003360436052A04AEA8EF10F0AAEF10F00B
:102150009FEF10F00350015C04500258D8A0B3EF79
:1021600010F0B5EF10F0B9EF10F00350015E04501D
:10217000025AD89004320332052EAAEF10F006500E
:10218000D8B4C5EF10F0C7EF10F0CBEF10F0016C32
:10219000021ED8B0022A01C001F002C002F01200F3
:1021A000000E956E9450F80B946E8290C30E036EE1
:1021B000CD0EE82EFED7032EFCD700F0000E016EE8
:1021C000330EE7EC12F01B0E036E9E0EE82EFED7C8
:1021D000032EFCD700D0000E016E330EE7EC12F098
:1021E000A60EE82EFED700D0000E016E330EE7ECEF
:1021F00012F000D000D000F0000E016E020EE7ECED
:1022000012F0A60EE82EFED700D0000E016E380E9A
:10221000E7EC12F0A60EE82EFED700D0000E016EFD
:10222000010EE7EC12F0040E036E3E0EE82EFED710
:10223000032EFCD7000E016E0C0EE7EC12F0A60E7A
:10224000E82EFED700D01200016E0104D8A42BEFB7
:1022500011F02DEF11F051EF11F011EC0FF05D6E58
:102260005D28D8B436EF11F038EF11F045EF11F0DA
:102270005E50D8B43EEF11F040EF11F045EF11F091
:10228000000E5E6E5D505EEF11F05D28D8A44BEF3E
:1022900011F04DEF11F05DEF11F0010E5E6E5DEF8C
:1022A00011F00150D8A457EF11F059EF11F05DEF84
:1022B00011F011EC0FF05EEF11F0FF0E1200000EA6
:1022C000066E000E056E03500410D8B46AEF11F0CC
:1022D0006CEF11F094EF11F0010E076E74EF11F036
:1022E000D89003360436072A04AE79EF11F07BEF5D
:1022F00011F070EF11F0D890053606360350015CEE
:1023000004500258D8A087EF11F089EF11F08EEF3A
:1023100011F00350015E0450025A0580D890043237
:102320000332072E7BEF11F005C001F006C002F06A
:102330001200000E016E0950E7EC12F0B6EF11F03A
:10234000010E016E07C0F6FF08C0F7FFF86A050E20
:10235000F76403D00800F55005D0F6CFD9FFF7CFCA
:10236000DAFFDF50E7EC12F0074A082A07C0F6FF51
:1023700008C0F7FFF86A050EF76403D00800F550AF
:1023800005D0F6CFD9FFF7CFDAFFDF500009D8A488
:10239000CCEF11F0CEEF11F0A0EF11F01200020E11
:1023A00019EC13F000017A6F010E19EC13F0000123
:1023B0007B6F000E19EC13F000017C6F7A390F0B64
:1023C000030B300F896F7A510F0B300F8A6F3A0E63
:1023D0008B6F7B390F0B0F0B300F8C6F7B510F0BFB
:1023E000300F8D6F3A0E8E6F7C390F0B0F0B300F45
:1023F0008F6F7C510F0B300F906F000E916F12009A
:10240000E00EF66E260EF76E000EF86E00EE60F02F
:1024100010EE1AF00900F5CFEEFFE550E150FAE1B9
:10242000BC0EF66E270EF76E000EF86E0900F5CFA3
:102430005EF001EE00F0B40EEE6AE806FDE100EE9B
:102440007AF0180EEE6AE806FDE100EE3FF01F0E8E
:10245000EE6AE806FDE1000EF86E00017DEF03F084
:1024600046EF12F007C0F6FF08C0F7FFF86A050E46
:10247000F76403D00800F55005D0F6CFD9FFF7CFA9
:10248000DAFFDF508AEC13F0074A082A07C0F6FF8C
:1024900008C0F7FFF86A050EF76403D00800F5508E
:1024A00005D0F6CFD9FFF7CFDAFFDF500009D8A467
:1024B0005CEF12F05EEF12F032EF12F01200000E3D
:1024C00019EC13F00B6E0B508009096E000E61ECD5
:1024D00013F0020E19EC13F00B6E0B504009096E4D
:1024E000020E61EC13F0930E096E070E61EC13F00F
:1024F000000E19EC13F00B6E0B507F0B096E000EE3
:1025000061EC13F01200076E07C003F0D890033699
:10251000D8900336C250C30B0310C26EC282C2B23F
:1025200094EF12F096EF12F08FEF12F0C350C4CF79
:1025300003F0046A03C004F0036A0310056E04503C
:10254000066E05C001F006C002F0120008C001F0DE
:1025500009C002F0000E046E0A0E036E5FEC11F06B
:1025600001C049F002C04AF04ABEC0EF12F04A5022
:1025700009E1640E495CD8A0C0EF12F0C2EF12F07E
:10258000C6EF12F0000E4A6E630E496E12000C6E1A
:10259000D7EC13F0A00EC5EC13F00C50C5EC13F003
:1025A0000950C5EC13F0D3EC13F00B0E0B6EB80E04
:1025B0000A6E0A06D8A00B060A2806E10B28D8A442
:1025C000E4EF12F0E6EF12F0D9EF12F01200026E13
:1025D00001B0EDEF12F0F0EF12F08282F1EF12F0A5
:1025E000829202C083FF82848294958E828082923E
:1025F0008284829483BEFFEF12F001EF13F0F8EFB4
:1026000012F08290959E1200026ED7EC13F0A00E8D
:10261000C5EC13F00250C5EC13F0CBEC13F0A10E97
:10262000C5EC13F0BFEC13F0036ED3EC13F00350C2
:102630001200026ED7EC13F0D00EC5EC13F002506E
:10264000C5EC13F0CBEC13F0D10EC5EC13F0BFECDE
:1026500013F0036ED3EC13F0035012000150030289
:10266000F3CF05F0F4CF06F001500402F350062634
:1026700002500302F350062605C001F006C002F026
:102680001200948E949CAC9CAC8AAC98AC96AC84B2
:10269000AB8EAB9CAB88B896810EAF6E9E989E9A1F
:1026A0001200C08EC09AC088C096C090C082C094EC
:1026B000C292C19AC198000EC46E000EC36EC28051
:1026C00012000A6ED7EC13F0D00EC5EC13F00A50CE
:1026D000C5EC13F00950C5EC13F0D3EC13F0120065
:1026E000F306F006F606E106E406E706EA06ED065E
:1026F000DE06D206C906A706BF06D0EC10F0ADEC88
:1027000013F051EC13F0A2EC13F05FEC12F041EC7B
:1027100013F01200016E9EA890EF13F092EF13F0E9
:102720008BEF13F09E9801C0ADFF12000A6E000EF1
:10273000016E0950E7EC12F0010E016E0A50E7EC51
:1027400012F0120094869488280EC66E310EC86E60
:10275000C79CC78E9E96A19612000F0EC16E1E0ECC
:10276000936EF19E8150E009816E12009EA6BBEF30
:1027700013F0BDEF13F0B6EF13F09E961200CFECFE
:1027800013F0DBEC13F0C9501200016E01C0C9FF59
:10279000B6EC13F01200C582B6EC13F01200C58639
:1027A000B6EC13F01200C584B6EC13F01200C5802D
:0D27B000B6EC13F01200C58AC588120001B6
:020000040020DA
:08000000FFFFFFFFFFFFFFFF00
:020000040030CA
:0E000000FF071F1FFF8285FF0FC00FE00F409C
:00000001FF
